:0400000000000428D0
:080008008A110A120728FF30DB
:10001000831603138500F520A22083129F0106306A
:1000200083169F0001308312050583120313B40069
:10003000A000023083120313050583120313A100ED
:10004000043083120313050583120313A200083042
:1000500083120313050583120313A30010308312C8
:100060000313050583120313A40020308312031326
:10007000050583120313A5003408031D4428FF302F
:10008000FF000030C12048280230FF000130C120AD
:10009000210883120313B4003408031D5428FF30D1
:1000A000FF000030C12058280230FF000130C1207D
:1000B0002208B400031D6128FF30FF000030C1207A
:1000C00065280230FF000130C1202308B400031D61
:1000D0006E28FF30FF000030C12072280230FF0080
:1000E0000130C1202408B400031D7B28FF30FF002D
:1000F0000030C1207F280230FF000130C1202508D8
:10010000B400031D88280530FF000130C1208C2871
:100110000A30FF000130C12064309020122808000E
:1001200083120313B30033080319A1283D3083124F
:10013000031381000B110B1D9B2883120313B303C0
:100140009328080087308316031381000800831268
:100150000313AE007F08AD00AF012F082D07B000DC
:100160002E08B1000318B10A300884000008B2005C
:100170000319C0283208E12083120313AF0AAD2807
:10018000080083120313A8007F08A700A90129080B
:100190002707AA002808AB000318AB0AD3282B08AE
:1001A0008A002A088200CF2083120313AC002C0897
:1001B0000319E0282C08E12083120313A90AC72899
:1001C000080083120313A600831203130C1EE428F5
:1001D0008312031326088312031399000800831265
:1001E00003138C1EEF281A080800813083160313AE
:1001F0009900243098009030831298000800303421
:1002000020340034313420340034303420340A3483
:0E0210000D340034313420340A340D340034FF
:02400E00FF3F72
:00000001FF
