:0400000000000428D0
:080008008A110A120728E130F9
:100010008316031386008501C820752001308312E2
:10002000060583120313B200A000203083120313CD
:10003000060583120313A100403083120313060543
:1000400083120313A2008030831203130605831268
:100050000313A3003208031D3228D230FF00003002
:1000600094203628D530FF000030942021088312D8
:100070000313B200031D4128D230FF00003094204A
:100080004528D530FF00003094202208B200031D1F
:100090004E28D230FF00003094205228D530FF0087
:1000A000003094202308B200031D5B28D830FF00E5
:1000B000003094205F28DD30FF0000309420643051
:1000C00063200E28080083120313B10031080319BE
:1000D00074283D308312031381000B110B1D6E2811
:1000E00083120313B10366280800873083160313B5
:1000F0008100080083120313AC007F08AB00AD0140
:100100002D082B07AE002C08AF000318AF0A2E08ED
:1001100084000008B000031993283008B42083122B
:100120000313AD0A8028080083120313A6007F087A
:10013000A500A70127082507A8002608A90003187D
:10014000A90AA62829088A0028088200A22083126A
:100150000313AA002A080319B3282A08B42083121B
:100160000313A70A9A28080083120313A40083121A
:1001700003130C1EB72883120313240883120313DE
:1001800099000800831203138C1EC2281A08080065
:100190008130831603139900243098009030831225
:1001A00098000800303420340034313420340034D6
:1001B000303420340A340D340034313420340A34DD
:0401C0000D340034C6
:02400E00FF3F72
:00000001FF
