:0400000000000428D0
:080008008A110A120728831671
:10001000031386108501A6205320013083120605A4
:1000200083120313AE002E08031935208C1E0D28F1
:100030001A0883120313AE00613A031932282E08FE
:10004000783A03192D282E087A3A031D0D288312B9
:1000500003138614FF3085000D28831203138610C6
:1000600085010D2835200D280800831203138614FE
:10007000FF3085000A30412083120313861085016A
:10008000080083120313AD002D08031952283D30D8
:100090008312031381000B110B1D4C2883120313D1
:1000A000AD0344280800873083160313810008003D
:1000B00083120313A8007F08A700A90129082707B6
:1000C000AA002808AB000318AB0A2A08840000081D
:1000D000AC00031971282C08922083120313A90A7B
:1000E0005E28080083120313A2007F08A100A30169
:1000F00023082107A4002208A5000318A50A8428C4
:1001000025088A0024088200802083120313A60099
:100110002608031991282608922083120313A30AA4
:100120007828080083120313A000831203130C1E07
:1001300095288312031320088312031399000800E3
:10014000831203138C1EA0281A080800813083161E
:10015000031399002430980090308312980008000F
:02400E00FF3F72
:00000001FF
