:0400000000000428D0
:080008008A110A120728E130F9
:10001000831603138600A92086013E20A3208312A5
:100020000313AD00203A031939282D08613A03194A
:100030002A282D086F3A03192F282D08703A031922
:1000400034282D08713A031D0E281C308312031327
:1000500086000E2816308312031386000E281E30E9
:100060008312031386000E281430831203138600B4
:100070000E288312031386010E280800B330FF00F8
:1000800000307520BA30FF0000307520C130FF000D
:1000900000307520D030FF0000307520DC30FF00CC
:1000A00000307520EC30FF0000307520FA30FF0082
:1000B00000307520080083120313A8007F08A700F2
:1000C000A90129082707AA002808AB000318AB0AD2
:1000D0002A0884000008AC00031974282C08952015
:1000E00083120313A90A6128080083120313A200D4
:1000F0007F08A100A30123082107A4002208A5006E
:100100000318A50A872825088A002408820083206E
:1001100083120313A60026080319942826089520A5
:1001200083120313A30A7B28080083120313A00081
:10013000831203130C1E98288312031320088312C2
:10014000031399000800831203138C1EA3281A08B6
:1001500008008130831603139900243098009030F2
:100160008312980008004D3465346E3475340A34B7
:100170000D3400342D342D342D342D340A340D3407
:10018000003471342E342D342034613464346534B9
:100190006C3461346E34743465340A340D34003494
:1001A00061342E342D34203461347434723461342B
:1001B00073340A340D3400346F342E342D3420342B
:1001C00069347A3471347534693465347234643422
:1001D00061340A340D34003470342E342D3420341C
:1001E00064346534723465346334683461340A3499
:1001F0000D3400344534533450344134433449349D
:100200004F342E342D342034503461347234613400
:0802100072340A340D3400348D
:02400E00FF3F72
:00000001FF
