:0400000000000428D0
:080008008A110A120728831671
:1000100003138501E13086008312860185010130DA
:10002000060583120313A0002008031D1B2883125A
:10003000031305101E288312031305142030060530
:1000400083120313A0002008031D2A288312031320
:1000500085102D2883120313851440300605831262
:100060000313A0002008031D392883120313051170
:100070003C288312031305158030060583120313F1
:10008000A0002008031D48288312031385110F28A0
:0A0090008312031385150F280800E2
:02400E00FF3F72
:00000001FF
