:0800000000008A110A12052814
:06000A001D30FE00013074
:10001000FF0080308A110A12FC208A110A12831212
:100020000313A1007F08A0001F30A2000130A3002D
:10003000831203132008A4002108A500FF30A007A5
:10004000031CA10324082504031995280430220762
:10005000A400A501A50D2308A5072408FE00250876
:10006000FF0080308A110A12FC208A110A128312C2
:100070000313A7007F08A6002208FE002308FF0044
:1000800080308A110A12FC208A110A12831203138B
:10009000A900A5007F08A800A40002302207A40040
:1000A000A501A50D2308A5072408FE002508FF00CB
:1000B00080308A110A12FC208A110A12831203135B
:1000C000A500AB007F08A400AA0083120313260832
:1000D000AA002708AB00FF30A607031CA7032A08C5
:1000E0002B0403198E282808FE002908FF00803001
:1000F0008A110A12E9208A110A1283120313AA0034
:10010000240884008313251883172A088000A80A6E
:100110000319A90AA40A0319A50A6528063083123F
:100120000313A2070318A30A18288A110A12992890
:100130000800831603138610BE2083120313B00138
:1001400083120313861CA72883120313B00A0130FD
:1001500083120313B0063008B100310C0318B32822
:10016000831203138610031CB8288312031386140A
:100170003230FF000030C6209D280800831603138C
:1001800081128111011581140114080083120313D7
:10019000AD007F08AC00AE01AF01831203132D0840
:1001A0002F02031DD5282C082E020318DF283D300E
:1001B000E02083120313AE0A0319AF0ACD2808000A
:1001C0008312031381000B11831203130B1DE42808
:1001D0000800003A0319F028803A0319F728003480
:1001E0007E08840083137F188317000808007F08A7
:1001F0008A007E0882000800003A03190429803A28
:1002000003190E29FF0100347E08840083137F1830
:1002100083170008FF00840A000808008A110A12E8
:10022000F720FD00FE0FFF03FF0A8A110A12F720D4
:10023000FC007D08FF007C080800013400342534F0
:0C02400001343234003401340034003446
:00000001FF
