:0800000000008A110A12052814
:06000A003430FE0001305D
:10001000FF0080308A110A1213218A110A128312FA
:100020000313A1007F08A0003630A2000130A30016
:10003000831203132008A4002108A500FF30A007A5
:10004000031CA10324082504031995280430220762
:10005000A400A501A50D2308A5072408FE00250876
:10006000FF0080308A110A1213218A110A128312AA
:100070000313A7007F08A6002208FE002308FF0044
:1000800080308A110A1213218A110A128312031373
:10009000A900A5007F08A800A40002302207A40040
:1000A000A501A50D2308A5072408FE002508FF00CB
:1000B00080308A110A1213218A110A128312031343
:1000C000A500AB007F08A400AA0083120313260832
:1000D000AA002708AB00FF30A607031CA7032A08C5
:1000E0002B0403198E282808FE002908FF00803001
:1000F0008A110A1200218A110A1283120313AA001C
:10010000240884008313251883172A088000A80A6E
:100110000319A90AA40A0319A50A6528063083123F
:100120000313A2070318A30A18288A110A12992890
:100130000800F22083120313AC0183120313861FFD
:10014000A42883120313AC0A831203132C08013A68
:10015000031DBD28AC0183120313061FB2288312AE
:100160000313AC0A831203132C08013A031DBD28A4
:100170001C308312031386009A2883120313861BF4
:10018000D62883120313AC0183120313061FCB2856
:1001900083120313AC0A831203132C08013A031DC4
:1001A000D62814308312031386009A28831203136F
:1001B000AC0183120313861FE02883120313AC0AD9
:1001C000831203132C08013A031DED288312031335
:1001D000061BED281E3086009A2883120313860121
:1001E0009A280800E1308316031386000E309F0022
:1001F000FF3085009F13831203139F011F14080013
:10020000003A03190729803A03190E2900347E08A1
:10021000840083137F188317000808007F088A0072
:100220007E0882000800003A03191B29803A03194E
:100230002529FF0100347E08840083137F1883176B
:100240000008FF00840A000808008A110A120E2123
:10025000FD00FE0FFF03FF0A8A110A120E21FC00A7
:100260007D08FF007C080800013400343C34013470
:0A0270002D34003401340034003452
:00000001FF
