:0800000000008A110A12052814
:06000A00D730FE000030BB
:10001000FF0080308A110A12AC208A110A12831262
:100020000313A1007F08A000D930A2000030A30074
:10003000831203132008A4002108A500FF30A007A5
:10004000031CA10324082504031995280430220762
:10005000A400A501A50D2308A5072408FE00250876
:10006000FF0080308A110A12AC208A110A12831212
:100070000313A7007F08A6002208FE002308FF0044
:1000800080308A110A12AC208A110A1283120313DB
:10009000A900A5007F08A800A40002302207A40040
:1000A000A501A50D2308A5072408FE002508FF00CB
:1000B00080308A110A12AC208A110A1283120313AB
:1000C000A500AB007F08A400AA0083120313260832
:1000D000AA002708AB00FF30A607031CA7032A08C5
:1000E0002B0403198E282808FE002908FF00803001
:1000F0008A110A1299208A110A1283120313AA0084
:10010000240884008313251883172A088000A80A6E
:100110000319A90AA40A0319A50A6528063083123F
:100120000313A2070318A30A18288A110A12CD285C
:100130000800003A0319A028803A0319A7280034C0
:100140007E08840083137F188317000808007F0847
:100150008A007E0882000800003A0319B428803A19
:100160000319BE28FF0100347E08840083137F1822
:1001700083170008FF00840A000808008A110A1289
:10018000A720FD00FE0FFF03FF0A8A110A12A72015
:10019000FC007D08FF007C080800E1308316031393
:1001A00086001C30831203138600D5280800013412
:1001B0000034DF3400342C34003401340034003493
:00000001FF
