:0800000000008A110A124829D0
:06000A00D0203A21831210
:10001000031386019720182183120313AC00203AA2
:10002000031946282C08313A03194A282C08323A79
:1000300003195D282C08333A031970282C08343A28
:10004000031983282C08613A031937282C086F3AC2
:1000500003193C282C08703A031941282C08713ADE
:10006000031D0B281C308312031386000B28163047
:100070008312031386000B281E308312031386009D
:100080000B2814308312031386000B2883120313EA
:1000900086010B2883120313AC0183120313061F7E
:1000A000542883120313AC0A303083120313AC07B5
:1000B0002C080A2120300A210B2883120313AC01DB
:1000C00083120313861F672883120313AC0A303090
:1000D00083120313AC072C080A2120300A210B28B5
:1000E00083120313AC0183120313851C7A28831235
:1000F0000313AC0A303083120313AC072C080A2117
:1001000020300A210B2883120313AC01831203133E
:10011000051D8D2883120313AC0A3030831203139C
:10012000AC072C080A2120300A210B2808000230D5
:1001300083120313A0006F30A1008030AB002108B0
:10014000FE002008FF002B08DE200230831203137C
:10015000A0007630A1008030AB002108FE0020080E
:10016000FF002B08DE20023083120313A0003F3073
:10017000A1008030AB002108FE002008FF002B0802
:10018000DE20023083120313A0001030A100803063
:10019000AB002108FE002008FF002B08DE2008002D
:1001A000E1308316031386000E309F00FF30850078
:1001B0009F13831203139F011F140800831203135C
:1001C000A5007F08A4007E08A300A60183120313E4
:1001D00026082307A70024080318013EA8002508C5
:1001E0000318013EA9002708FE002808FF0029087F
:1001F0008A110A12DC218A110A1283120313AA003F
:100200002A08031909292A080A2183120313A60AB6
:10021000E628080083120313A200831203130C1EA6
:100220000D29831203132208831203139900080077
:10023000831203138C1A1E29981C18298312031386
:100240001A0883120313A000A10183120313981C40
:100250002C2983120313A10A831203132108013AE4
:10026000031D362983120313181218168312031361
:1002700020080800831603131815813099001812FE
:100280008312031398171816831603139816080081
:100290006730FE000230FF0080308A110A12EF2121
:1002A0008A110A1283120313AE007F08AD00693071
:1002B000AF000230B000831203132D08B1002E08E6
:1002C000B200FF30AD07031CAE033108320403193E
:1002D000D82904302F07B100B201B20D3008B2079F
:1002E0003108FE003208FF0080308A110A12EF2127
:1002F0008A110A1283120313B4007F08B3002F0877
:10030000FE003008FF0080308A110A12EF218A11A6
:100310000A1283120313B600B2007F08B500B100C1
:1003200002302F07B100B201B20D3008B207310818
:10033000FE003208FF0080308A110A12EF218A1174
:100340000A1283120313B200B8007F08B100B7008D
:10035000831203133308B7003408B800FF30B30723
:10036000031CB403370838040319D1293508FE00EB
:100370003608FF0080308A110A12DC218A110A1225
:1003800083120313B70031088400831332188317D4
:1003900037088000B50A0319B60AB10A0319B20A70
:1003A000A829063083120313AF070318B00A5B298C
:1003B0008A110A1205280800003A0319E329803A35
:1003C0000319EA2900347E08840083137F188317F9
:1003D000000808007F088A007E0882000800003AB2
:1003E0000319F729803A0319012AFF0100347E0816
:1003F000840083137F1883170008FF00840A000815
:1004000008008A110A12EA21FD00FE0FFF03FF0A0D
:100410008A110A12EA21FC007D08FF007C0808000E
:100420005434653463346C3461347334203431347F
:100430002C3432342C3433342C3434342E342D34A4
:1004400020344C346534653472342034733465346C
:100450006E3473346F34723465347334203433340F
:100460002C343434203479342034623475346D348F
:1004700070346534723473340A340D3400345434B7
:10048000653463346C3461347334203471342C3407
:1004900061342C346F342C3470342C344534533460
:1004A00050344134433449344F342E342D342034C5
:1004B0004D346F34763465347234203453346B34B5
:1004C000793462346F3474340A340D3400340134B6
:1004D00000347D34023439340034013400344D3476
:1004E00065346E3475340A340D3400342D342D34B3
:0C04F0002D342D340A340D340034003457
:00000001FF
