:0800000000008A110A12052814
:06000A003B30FE00013056
:10001000FF0080308A110A121A218A110A128312F3
:100020000313A1007F08A0003D30A2000130A3000F
:10003000831203132008A4002108A500FF30A007A5
:10004000031CA10324082504031995280430220762
:10005000A400A501A50D2308A5072408FE00250876
:10006000FF0080308A110A121A218A110A128312A3
:100070000313A7007F08A6002208FE002308FF0044
:1000800080308A110A121A218A110A12831203136C
:10009000A900A5007F08A800A40002302207A40040
:1000A000A501A50D2308A5072408FE002508FF00CB
:1000B00080308A110A121A218A110A12831203133C
:1000C000A500AB007F08A400AA0083120313260832
:1000D000AA002708AB00FF30A607031CA7032A08C5
:1000E0002B0403198E282808FE002908FF00803001
:1000F0008A110A1207218A110A1283120313AA0015
:10010000240884008313251883172A088000A80A6E
:100110000319A90AA40A0319A50A6528063083123F
:100120000313A2070318A30A18288A110A12992890
:10013000080083160313850106309F00E130860016
:1001400083120313850183120313AC01831203137B
:10015000061CAD2883120313AC0A831203132C0C64
:100160000318B528831203130510031CBA28831241
:100170000313051483120313AC0183120313861EA9
:10018000C42883120313AC0A831203132C08AD0096
:100190002D0C0318CE28831203138510031CD328BB
:1001A00083120313851483120313AC018312031308
:1001B000061FDD2883120313AC0A831203132C08D5
:1001C000AD002D0C0318E728831203130511031C3F
:1001D000EC2883120313051583120313AC01831259
:1001E0000313861FF62883120313AC0A831203132A
:1001F0002C08AD002D0C0318002983120313851160
:10020000031C0529831203138515A3280800003A4F
:1002100003190E29803A0319152900347E08840039
:1002200083137F188317000808007F088A007E0860
:1002300082000800003A03192229803A03192C2968
:10024000FF0100347E08840083137F1883170008A1
:10025000FF00840A000808008A110A121521FD0017
:10026000FE0FFF03FF0A8A110A121521FC007D0808
:10027000FF007C08080001340034433401342E347C
:080280000034013400340034A5
:00000001FF
