:020000040000FA
:0800000000008A110A12A62873
:06000A00FD308316031314
:100010008600762070200230831286068030FF0032
:1000200000303E200A28080083120313A9007F082D
:10003000A8007E08A700AA012A082707AB00280805
:100040000318013EAC0029080318013EAD002B083F
:10005000FE002C08FF002D088A110A1293208A1135
:100060000A1283120313AE002E0803193D282E082E
:10007000622083120313AA0A1C28080083120313A8
:10008000A2007F08A100A30123082107A4002208E1
:100090000318013EA5002408FE002508FF0080305B
:1000A0008A110A1293208A110A1283120313A600DE
:1000B0002608031961282608622083120313A30A65
:1000C0004428080083120313A000831203130C1E9C
:1000D0006528831203132008831203139900080074
:1000E000831203138C1E70281A08080081308316AF
:1000F0000313990024309800903083129800080070
:1001000048346F346C346134203463346F346D346C
:100110006F342034653473347434613473342E3462
:100120002E342E340034003A03199A28803A0319E9
:10013000A12800347E08840083137F1883170008E9
:1001400008007F088A007E08820008008A110A12CF
:02015000052880
:00000001FF
