:020000040000FA
:0800000000008A110A126728B2
:06000A00E1308316031330
:1000100086008A110A1262208A110A121C30831289
:100020000313860064308A110A124F208A110A12C3
:10003000143083120313860082308A110A124F2073
:100040008A110A121C3083120313860064308A114D
:100050000A124F208A110A121430831203138600E9
:1000600028308A110A124F208A110A121C3083127A
:100070000313860064308A110A124F208A110A1273
:100080001E30831203138600C8308A110A124F20D3
:100090008A110A128312031386014D280800831265
:1000A0000313A00000302004031961283D3083129F
:1000B000031381000B110B1D5B2883120313A00394
:1000C00052280800873083160313810008008A1124
:0400D0000A120528E3
:00000001FF
