S123F8008630A72B8600A72C860CA72D8688A7268600A700391F2E20FCA62F391F2E80FC1C
S123F820A72F39183C1D26804F18CE00098D101618CE00078D0946843F1C26801838391CBA
S123F840000801011D00081E008004847F20028A801809188C000027034620E339183C1DC2
S123F860000818CE00068D081C008001011838393716C40127051C008020031D00801C001E
S123F8800801011D0008461809188C0000270220E03339183C3618CE00014FBDF87018CECA
S123F8A0000817BDF87018CE000732843FBDF870183839378602BDF85D18EC00BDF89386CD
S123F8C008BDF85D33BDF8DBA6008840A7008606BDF85D180818085A26D9393637EC0EC398
S123F8E09C40ED1E1C23081F2308FC3332393FF9CE10008E00FFBDF8008640A700BDF81563
S123F9008150272E81492732815227458141275A81432763815727178154270D81442706B9
S123F9208142270820D37EF9BB7EF9AA7EF9D67EF98A864FBDF81C7EF8F98649BDF81C8602
S123F94040BDF81C8610BDF81C8610BDF81C7EF8F98652BDF81C8604BDF85DBDF8233617EB
S123F960BDF81C32BDF81C7EF8F98606BDF85D8641BDF81C7EF8F98600BDF85DCC0000BD7A
S123F980F8938643BDF81C7EF8F9BDF81516BDF815188F8602BDF85D188FBDF8938608BDAA
S123F9A0F85D8657BDF81C7EF8F91C0010BDF8DB1D00108654BDF81C7EF8F9BDF81516BD31
S123F9C0F815188F8602BDF85D188FBDF8938644BDF81C7EF8F98608BDF85D8642BDF81CA3
S106F9E07EF8F9B1
S105FFFEF8F015
S9030000FC
