:0400000000000428D0
:080008008A110A120728E130F9
:10001000831603138600831286016F2080308312BB
:100020000313060583120313AD002D08031D1B28BF
:1000300042305B201D284E305B2008305B200E28AC
:10004000080083120313A8007F08A700A90129084C
:100050002707AA002808AB000318AB0A2A08840067
:100060000008AC0003193A282C085B208312031304
:10007000A90A2728080083120313A2007F08A10001
:10008000A30123082107A4002208A5000318A50A3C
:100090004D2825088A002408820049208312031372
:1000A000A600260803195A2826085B20831203138A
:1000B000A30A4128080083120313A000831203132C
:1000C0000C1E5E2883120313200883120313990069
:1000D0000800831203138C1E69281A080800813057
:1000E00083160313990024309800903083129800EF
:0200F000080006
:02400E00FF3F72
:00000001FF
