:0800000000008A110A12052814
:06000A000230FE0001308F
:10001000FF0080308A110A12E1208A110A1283122D
:100020000313A1007F08A0000430A2000130A30048
:10003000831203132008A4002108A500FF30A007A5
:10004000031CA10324082504031995280430220762
:10005000A400A501A50D2308A5072408FE00250876
:10006000FF0080308A110A12E1208A110A128312DD
:100070000313A7007F08A6002208FE002308FF0044
:1000800080308A110A12E1208A110A1283120313A6
:10009000A900A5007F08A800A40002302207A40040
:1000A000A501A50D2308A5072408FE002508FF00CB
:1000B00080308A110A12E1208A110A128312031376
:1000C000A500AB007F08A400AA0083120313260832
:1000D000AA002708AB00FF30A607031CA7032A08C5
:1000E0002B0403198E282808FE002908FF00803001
:1000F0008A110A12CE208A110A1283120313AA004F
:10010000240884008313251883172A088000A80A6E
:100110000319A90AA40A0319A50A6528063083123F
:100120000313A2070318A30A18288A110A12992890
:10013000080083160313861083120313AE01831283
:100140000313861CA62883120313AE0A0130831200
:100150000313AE062E08AF002F0C0318B22883122B
:1001600003138610031CB728831203138614FF3071
:10017000FF00FF30BD209C28080083120313AD0050
:100180007F08AC00831203132C082D040319CD281B
:10019000FF30AC07031CAD03C2280800003A031966
:1001A000D528803A0319DC2800347E0884008313A4
:1001B0007F188317000808007F088A007E088200E5
:1001C0000800003A0319E928803A0319F328FF01CF
:1001D00000347E08840083137F1883170008FF0013
:1001E000840A000808008A110A12DC20FD00FE0FB4
:1001F000FF03FF0A8A110A12DC20FC007D08FF00C1
:100200007C080800013400340A34013432340034EC
:060210000134003400344B
:00000001FF
