:0400000000000428D0
:080008008A110A120728873053
:10001000831603138600462018308312860064304E
:100020003420383083120313860082303420183095
:100030008312031386006430342038308312031394
:100040008600283034201830831203138600643071
:1000500034205830831203138600C83034208312B2
:10006000031386013228080083120313A00020081E
:10007000031945283D308312031381000B110B1D1A
:100080003F2883120313A003372808008730831604
:06009000031381000800CB
:02400E00FF3F72
:00000001FF
