:0800000000008A110A122C2AEB
:06000A001820831203130D
:10001000B4003408031D0E2801300F2800300800FA
:100020001820013A031D1628013017280030080057
:10003000013083120313060583120313B300330840
:1000400003192428003025280130080031208312AC
:100050000313B2003208031D2F28582030285420E3
:10006000080083120313861837280030382801301F
:1000700008008A110A1231208A110A12831203130E
:10008000B1003108031D4628013047280030080020
:100090008A110A1231208A110A12013A031D5228CC
:1000A0000130532800300800831203138610080023
:1000B0008312031386140800083083120313050506
:1000C00083120313B000300803196828013069282F
:1000D0000030080004308312031305058312031354
:1000E000AF002F0803197628013077280030080068
:1000F000023083120313050583120313AE002E088A
:10010000031984280130852800300800013083124B
:100110000313050583120313AD002D08031992285C
:1001200001309328003008008A110A1278208A11C1
:100130000A12013A031D9E2801309F280030080052
:100140008A110A126A208A110A12013A031DAA288A
:100150000130AB28003008008A110A1294208A115D
:100160000A12013A031DB6280130B72800300800F2
:100170008A110A12A0208A110A12013A031DC2280C
:100180000130C328003008008030831203130605B5
:1001900083120313AC002C080319D0280130D12896
:1001A0000030080040308312031306058312031346
:1001B000AB002B080319DE280130DF2800300800CF
:1001C000203083120313060583120313AA002A08A2
:1001D0000319EC280130ED280030080001308312AB
:1001E0000313060583120313A90029080319FA282B
:1001F0000130FB280030080083120313A601A70179
:100200004D2183120313A80028080319092901307E
:10021000A600412183120313A800280803191229FC
:100220000130A7000030260403191B2927080319F1
:100230001B29033022290030270403192129023009
:100240002229013008008A110A12E0208A110A12BC
:1002500083120313A5002508031D3029013031291D
:10026000003008008A110A12EE208A110A12831245
:100270000313A4002408031D3F2901304029003046
:1002800008008A110A12E0208A110A12013A031D9D
:100290004B2901304C29003008008A110A12EE2047
:1002A0008A110A12013A031D5729013058290030DA
:1002B000080083120313860108001630831203130B
:1002C00086000800143083120313860008001E30D5
:1002D00083120313860008001C3083120313860068
:1002E000080083120313A1007F08A0007E08A3006A
:1002F0007D08A20001302302031D80290030220264
:10030000031C8D29FF308A110A1214228A110A1245
:1003100083120313A20FA3037A2922088A110A1257
:1003200014228A110A120030831203132102031DC2
:100330009B2903302002031CAA29C8308A110A1203
:1003400014228A110A12FE3083120313A007031C21
:10035000A10393292008023A031DB9292108003A74
:10036000031DB929C8308A110A1214228A110A12EF
:10037000C929831203132008013A031DC929210842
:10038000003A031DC92964308A110A1214228A1105
:100390000A120800E1308316031386000E309F0016
:1003A0008A110A1227228A110A1208008A110A12D7
:1003B000CA218A110A128A110A126C218A110A12A0
:1003C0000030FD000030FE000230FF0000308A11D6
:1003D0000A1271218A110A128A110A1267218A11DE
:1003E0000A120030FD000030FE000230FF00003035
:1003F0008A110A1271218A110A128A110A126221C3
:100400008A110A120030FD000030FE000230FF00A9
:1004100000308A110A1271218A110A128A110A12F5
:1004200059218A110A12080083120313B500003003
:1004300035040319262A3D308312031381000B1162
:100440000B1D202A83120313B503172A08008730D7
:0E04500083160313810008008A110A12D629B0
:00000001FF
