:0800000000008A110A12B92A5E
:06000A001820831203130D
:10001000B6003608031D0E2801300F2800300800F6
:100020001820013A031D1628013017280030080057
:10003000013083120313060583120313B50035083C
:1000400003192428003025280130080031208312AC
:100050000313B4003408031D2F28582030285420DF
:10006000080083120313861837280030382801301F
:1000700008008A110A1231208A110A12831203130E
:10008000B3003308031D462801304728003008001C
:100090008A110A1231208A110A12013A031D5228CC
:1000A0000130532800300800831203138610080023
:1000B0008312031386140800083083120313050506
:1000C00083120313B200320803196828013069282B
:1000D0000030080004308312031305058312031354
:1000E000B100310803197628013077280030080064
:1000F000023083120313050583120313B000300886
:10010000031984280130852800300800013083124B
:100110000313050583120313AF002F080319922858
:1001200001309328003008008A110A1278208A11C1
:100130000A12013A031D9E2801309F280030080052
:100140008A110A126A208A110A12013A031DAA288A
:100150000130AB28003008008A110A1294208A115D
:100160000A12013A031DB6280130B72800300800F2
:100170008A110A12A0208A110A12013A031DC2280C
:100180000130C328003008008030831203130605B5
:1001900083120313AE002E080319D0280130D12892
:1001A0000030080040308312031306058312031346
:1001B000AD002D080319DE280130DF2800300800CB
:1001C000203083120313060583120313AC002C089E
:1001D0000319EC280130ED280030080001308312AB
:1001E0000313060583120313AB002B080319FA2827
:1001F0000130FB280030080083120313A801A90175
:100200004D2183120313AA002A080319092901307A
:10021000A800412183120313AA002A0803191229F6
:100220000130A9000030280403191B2929080319EB
:100230001B29033022290030290403192129023007
:100240002229013008008A110A12E0208A110A12BC
:1002500083120313A7002708031D30290130312919
:10026000003008008A110A12EE208A110A12831245
:100270000313A6002608031D3F2901304029003042
:1002800008008A110A12E0208A110A12013A031D9D
:100290004B2901304C29003008008A110A12EE2047
:1002A0008A110A12013A031D5729013058290030DA
:1002B000080083120313860108001630831203130B
:1002C00086000800143083120313860008001E30D5
:1002D00083120313860008001C3083120313860068
:1002E000080083120313A3007F08A2007E08A50064
:1002F0007D08A40001302502031D8029003024025E
:10030000031C8D29FF308A110A12A1228A110A12B8
:1003100083120313A40FA5037A2924088A110A1251
:10032000A1228A110A120030831203132302031D33
:100330009B2903302202031CAA29C8308A110A1201
:10034000A1228A110A12FE3083120313A207031C92
:10035000A30393292208023A031DB9292308003A6E
:10036000031DB929C8308A110A12A1228A110A1262
:10037000C929831203132208013A031DC92923083E
:10038000003A031DC92964308A110A12A1228A1178
:100390000A120800E1308316031386000E309F0016
:1003A0008A110A12B4228A110A1208008A110A124A
:1003B000CA218A110A121E30FD000030FE000030F2
:1003C000FF0000308A110A1271218A110A128A1163
:1003D0000A1258208A110A128A110A1205208A115B
:1003E0000A1283120313A1002108031DEC29A001A6
:1003F000053020020318222A8A110A1254208A1179
:100400000A123230FD000030FE000030FF000030E4
:100410008A110A1271218A110A128A110A125820AD
:100420008A110A123230FD000030FE000030FF0059
:1004300000308A110A1271218A110A1283120313E1
:10044000A00AF8298A110A1232218A110A1283128B
:100450000313A100210803194A2A8A110A12412113
:100460008A110A1283120313A100210803194A2AD0
:100470008A110A1267218A110A12C830FD00003061
:10048000FE000030FF0000308A110A1271218A112B
:100490000A12222A8A110A124D218A110A12831283
:1004A0000313A10021080319722A8A110A122321B9
:1004B0008A110A1283120313A10021080319722A58
:1004C0008A110A1262218A110A12C830FD00003016
:1004D000FE000030FF0000308A110A1271218A11DB
:1004E0000A12222A8A110A124D218A110A12831233
:1004F0000313A100210803199A2A8A110A12412123
:100500008A110A1283120313A100210803199A2ADF
:100510008A110A125D218A110A12C830FD000030CA
:10052000FE000030FF0000308A110A1271218A118A
:100530000A12222A8A110A126C218A110A12222A0C
:10054000080083120313B700003037040319B32ADD
:100550003D308312031381000B110B1DAD2A831252
:100560000313B703A42A08008730831603138100FE
:0805700008008A110A12D629C5
:00000001FF
